:020000040800F2
:1000000000000220A10700083D0600083F06000886
:1000100041060008430600084506000800000000ED
:10002000000000000000000000000000470600087B
:1000300049060008000000004B0600084D060008B5
:10004000F1070008F1070008F1070008F1070008B0
:10005000F1070008F1070008F1070008F1070008A0
:10006000F1070008F1070008F1070008F107000890
:10007000F1070008F1070008F1070008F107000880
:10008000F1070008F1070008F1070008F107000870
:10009000F1070008F1070008F1070008F107000860
:1000A000F1070008F1070008F1070008F107000850
:1000B000F1070008F1070008F1070008F107000840
:1000C000F1070008F1070008F1070008F107000830
:1000D000F1070008F1070008F1070008F107000820
:1000E000F1070008F1070008F1070008F107000810
:1000F000F1070008F1070008F1070008F107000800
:10010000F1070008F1070008F1070008F1070008EF
:10011000F1070008F1070008F1070008F1070008DF
:10012000F1070008F1070008F1070008F1070008CF
:10013000F10700080000000000000000F1070008BF
:10014000F1070008F1070008F1070008550600084C
:10015000F1070008F1070008F1070008F10700089F
:10016000F1070008F1070008F1070008F10700088F
:10017000F1070008F107000800000000000000007F
:08018000F1070008F107000877
:1001880010B5054C237833B9044B13B10448AFF3C9
:1001980000800123237010BD24050020000000000A
:1001A8001048000808B5034B1BB103490348AFF3D7
:1001B800008008BD00000000280500201048000845
:1001C80053B94AB9002908BF00281CBF4FF0FF31B6
:1001D8004FF0FF3000F074B9ADF1080C6DE904CEB2
:1001E80000F006F8DDF804E0DDE9022304B070470A
:1001F8002DE9F047089E0D4604468846002B4DD150
:100208008A42944668D9B2FA82F252B101FA02F3EC
:10021800C2F1200120FA01F10CFA02FC41EA0308BC
:1002280094404FEA1C45210CB8FBF5FE1FFA8CF7E9
:1002380005FB1E8341EA03430EFB07F199420BD9E4
:100248001CEB03030EF1FF3080F01E81994240F24F
:100258001B81AEF1020E63445B1AA4B2B3FBF5F046
:1002680005FB103344EA034400FB07F7A7420AD909
:100278001CEB040400F1FF3380F00881A74240F230
:10028800058164440238E41B40EA0E4000211EB197
:10029800D4400023C6E90043BDE8F0878B4208D963
:1002A800002E00F0EE800021C6E900050846BDE8F2
:1002B800F087B3FA83F100294AD1AB4202D38242D4
:1002C80000F2F980841A65EB030301209846002E9A
:1002D800E2D0C6E90048DFE702B9FFDEB2FA82F2EF
:1002E800002A40F09180A1EB0C054FEA1C471FFA49
:1002F8008CFE0121B5FBF7F307FB1350250C45EAEB
:1003080000450EFB03F0A84208D91CEB050503F1D4
:10031800FF3802D2A84200F2CB8043462D1AA4B27D
:10032800B5FBF7F007FB105544EA05440EFB00FE49
:10033800A64508D91CEB040400F1FF3502D2A645F6
:1003480000F2BB802846A4EB0E0440EA03409EE777
:10035800C1F120078B4022FA07FC4CEA030C20FA73
:1003680007F405FA01F31C43FD404FEA1C4900FA63
:1003780001F3B5FBF9F8200C1FFA8CFE09FB1855A0
:1003880040EA054508FB0EF0A84202FA01F20BD933
:100398001CEB050508F1FF3A80F08880A84240F27E
:1003A8008580A8F1020865442D1AA4B2B5FBF9F0BE
:1003B80009FB105544EA054500FB0EFEAE4508D979
:1003C8001CEB050500F1FF346CD2AE456AD9023842
:1003D800654440EA0840A0FB0294A5EB0E05A5423F
:1003E800C846A64656D353D05EB1B3EB080265EBB8
:1003F8000E0505FA07F722FA01F3CD401F43C6E9B7
:1004080000750021BDE8F087C2F1200320FA03F14E
:100418000CFA02FC25FA03F395400D434FEA1C47FA
:100428001FFA8CFEB3FBF7F107FB11302B0C43EAE4
:10043800004301FB0EF0984204FA02F408D91CEBC1
:10044800030301F1FF382FD298422DD902396344B2
:100458001B1AADB2B3FBF7F007FB103345EA0345AF
:1004680000FB0EF3AB4208D91CEB050500F1FF3881
:1004780016D2AB4214D902386544ED1A40EA01415C
:1004880038E73146304607E78646E5E61846FAE695
:100498004B45A9D2B9EB020864EB0C0E0138A3E76F
:1004A8004046EAE7204694E74146D1E7D0467BE755
:1004B800023B654432E7084609E76444023842E7EC
:1004C800704700BF84B000220192104B196B41F0B5
:1004D80080011963196B01F0800101910199029261
:1004E800196B41F004011963196B01F004010291C1
:1004F800029903921A6B42F001021A631B6B03F014
:1005080001030393039B04B0704700BF0038024007
:1005180072B6FEE700B595B03022002108A804F0B5
:10052800B1F800230393049305930693079301936B
:10053800204A116C41F080511164126C02F0805213
:100548000192019A02931C4B1A6842F480421A6085
:100558001B6803F480430293029B012308934FF422
:100568008033099302230E934FF480020F920422E2
:100578001092A822119212930723139308A801F04E
:1005880031F998B90F2303930223049300230593A9
:100598004FF4A05306934FF480530793052103A803
:1005A80001F086FB20B915B05DF804FBFFF7B0FF3A
:1005B800FFF7AEFF003802400070004008B500F0B9
:1005C8003BF9FFF7A7FFFFF77DFF00F08DF803F079
:1005D800D5FD0C21074801F0E7FE074B1B681B7887
:1005E800044A12689B0013644FF47A7000F050F9C3
:1005F800F3E700BF400500206C18002082B00021FE
:1006080000910B4B5A6C42F480425A645A6C02F4C3
:1006180080420092009A01911A6C42F080521A644A
:100628001B6C03F080530193019B02B0704700BF1D
:1006380000380240FEE7FEE7FEE7FEE7FEE7704708
:100648007047704708B500F011F908BD08B50248B1
:1006580000F0BFFD08BD00BF701A00207047000001
:100668000268094B9A4200D0704782B00023019378
:10067800064B1A6C42F002021A641B6C03F0020368
:100688000193019B02B0704700040040003802400B
:1006980000B587B000230193029303930493059355
:1006A80002680E4B9A4202D007B05DF804FB0023A3
:1006B80000930B4B1A6B42F004021A631B6B03F096
:1006C80004030093009B4FF40073019302230293E9
:1006D800059301A9034800F05BF9E5E70004004031
:1006E800003802400008024000B58FB000230A938A
:1006F8000B930C930D93089309930193029303931F
:1007080004930593069307932148224A026040F216
:100718008F624260836040F2E732C26003618361A6
:1007280001F0AAFC28BB4FF480530A930AA9184881
:1007380001F0ACFD00BB164801F0CAFCF8B9002373
:100748000893099308A9124801F0B0FED0B96023B4
:10075800019300230293039305930C2201A90C48EB
:1007680001F01AFD88B90A48FFF792FF0FB05DF84B
:1007780004FBFFF7CDFED6E7FFF7CAFEDBE7FFF77E
:10078800C7FEDCE7FFF7C4FEE1E7FFF7C1FEEAE7D3
:100798004005002000040040DFF834D0FFF75EFF7A
:1007A8000C480D490D4A002302E0D458C4500433C4
:1007B800C4188C42F9D30A4A0A4C002301E013609A
:1007C8000432A242FBD303F039FFFFF7F7FE70476C
:1007D800000002200000002024050020984800089E
:1007E8002405002078210020FEE7000010B504460B
:1007F8000E4B18784FF47A73B3FBF0F30C4A106879
:10080800B0FBF3F000F0B0F868B90F2C01D9012063
:100818000AE0002221464FF0FF3000F05FF8054B58
:100828001C60002000E0012010BD00BF0400002073
:10083800000000200800002008B50B4B1A6842F49D
:1008480000721A601A6842F480621A601A6842F4E8
:1008580080721A60032000F02FF80F20FFF7C6FF00
:10086800FFF7CCFE002008BD003C0240034A116897
:10087800034B1B780B441360704700BF88050020AA
:1008880004000020014B1868704700BF880500204D
:1008980038B50446FFF7F6FF0546B4F1FF3F02D02E
:1008A800044B1B781C44FFF7EDFF401BA042FAD312
:1008B80038BD00BF04000020074AD36823F4E06372
:1008C8001B041B0C000200F4E060034343F0BF6309
:1008D80043F40033D360704700ED00E000B5194BD6
:1008E800DB68C3F30223C3F1070CBCF1040F28BF74
:1008F8004FF0040C03F1040EBEF1060F18D9033BA8
:100908004FF0FF3E0EFA0CFC21EA0C0199400EFA5A
:1009180003F322EA0303194300280BDB0901C9B2D8
:1009280000F1604000F5614080F800135DF804FBB9
:100938000023E5E700F00F000901C9B2024B195482
:10094800F4E700BF00ED00E014ED00E0002807DB4D
:1009580000F01F02400901239340024A42F8203068
:10096800704700BF00E100E00138B0F1807F0BD292
:100978004FF0E0235861054AF02182F82310002047
:10098800986107221A6170470120704700ED00E066
:1009980000230F2B00F2E48070B582B060E0856818
:1009A8005E000324B44025EA0405CC68B4402C4317
:1009B8008460456825EA02054C68C4F300129A4031
:1009C8002A4342605AE0DC08083450F8246003F0F7
:1009D800070295000F22AA4026EA020E0A69AA40D9
:1009E80042EA0E0240F824205CE0072200E00022E0
:1009F80002FA0EF22A4302345A4D45F824205A4A84
:100A080094686FEA0C0224EA0C054E6816F4801FFD
:100A180001D04CEA0405544CA560E46802EA0405D8
:100A28004E6816F4001F01D04CEA04054E4CE560F0
:100A3800646802EA04054E6816F4003F01D04CEAE7
:100A48000405494C6560246822404D6815F4803FD0
:100A580001D04CEA0402444C226001330F2B7DD8AC
:100A680001229A400C6804EA020C32EA0404F4D128
:100A78004C6804F00304013C012C90D94A6802F048
:100A88000302032A09D0C4685D000322AA4024EAAD
:100A980002048A68AA402243C2604A6802F003023C
:100AA800022A90D004684FEA430E032202FA0EF29B
:100AB80024EA02044A6802F0030202FA0EF2224310
:100AC80002604A6812F4403FC7D000220192274AC8
:100AD800546C44F480445464526C02F48042019291
:100AE800019A9C08A51C1F4A52F8255003F00302DE
:100AF8004FEA820E0F2202FA0EF225EA02051C4A7C
:100B080090423FF474AF02F5806290421AD002F529
:100B18008062904218D002F58062904216D002F5A9
:100B28008062904214D002F58062904212D002F5A1
:100B38008062904210D002F5806290423FF455AF37
:100B4800082255E7012253E7022251E703224FE723
:100B580004224DE705224BE7062249E702B070BDA3
:100B6800704700BF00380140003C01400038024097
:100B7800000002402DE9F04383B0D0F8008001EB7B
:100B8800C10300EB83039A6A5B6A9A4254D807460A
:100B98000C469B1A01EBC10200EB8202D2699A4211
:100BA80000D31A4602F103094FEA990915E006F144
:100BB80003094FEA9909BB7904EBC40507EB8505DE
:100BC800296A0093B3B2E2B2404601F0E9FF2B6A0A
:100BD80033442B62AB6A3344AB6208EB441303F52E
:100BE80010639B699BB24B4512D304EBC40207EB1D
:100BF8008202916A536A99420AD24BB15B1A04EB9A
:100C0800C40207EB8202D6699E42D0D31E46CEE7C5
:100C180004EBC40007EB80077A6ABB6A9A420FD8D4
:100C280004F00F040123A340D8F8344824EA03044D
:100C3800C8F83448002000E0012003B0BDE8F08384
:100C48000020FAE730B583B000287AD0044605685A
:100C580090F89534C3B1032384F89534B5F1A04FC7
:100C680017D0206801F04EFD237C8DF80030231D3D
:100C78000ECB206801F085FC70B1022384F895340E
:100C88000125284603B030BD80F8943403F082FB78
:100C9800E1E70023A371E4E70021206802F09FF94F
:100CA800024608B9034617E0022384F89534012563
:100CB800E7E703EBC30104EB8101012048750B75DD
:100CC800CB8500200876C861086203EBC30104EBFA
:100CD800810148620133DBB220799842E9D816E0F5
:100CE80002EBC20304EB8303002183F8551283F857
:100CF800542283F85812C3F85C12C3F8601202EB4E
:100D0800C20304EB8303C3F864120132D2B29042E7
:100D1800E6D8237C8DF80030231D0ECB206801F027
:100D280047FD054620B1022384F895340125A8E73C
:100D380000236374012384F89534206802F00DF9C8
:100D48009FE701259DE7036890F89424012A1AD0AB
:100D580010B50446012280F89424DA6812F0400F96
:100D680002D0427B012A09D0206801F0C5FC206826
:100D780002F0E5F8002084F8940410BD9A6B42F460
:100D880080329A63F0E702207047000070B504468D
:100D98000D460068066C00EB411303F530639A6852
:100DA800A179012911D038498E4256D03DB905EBB9
:100DB800C50304EB8303D3F86432002B5ED0E9B299
:100DC800204603F031FB002070BD12F0080F09D057
:100DD8002E498E42F7D912F4004FF4D04FF4004256
:100DE8009A60F0E712F0200F02D020229A60EAE71A
:100DF80012F0280FE7D125498E4206D912F4004F88
:100E080003D04FF400429A60DDE705EBC50204EB1E
:100E18008202D2F874121B69C3F31203CB1AC2F808
:100E280068327DB905EBC50204EB8202D2F8642270
:100E38006AB105EBC50204EB8202D2F860120B44DA
:100E4800C2F86032E9B2204603F0EEFABBE704F2DA
:100E58009C42012102F004F9F4E712F4004F03D098
:100E68004FF400429A60AEE712F0200F01D0202222
:100E78009A60E9B2204603F0D7FAA4E704F29C424C
:100E8800002102F0EDF89AE70A31544F0A30544F26
:100E980038B5044603681D6C03EB4113D3F8081BEF
:100EA8000E4A954207D903F5306311F4004F02D07A
:100EB8004FF400429A60204603F0AEFA074B9D4279
:100EC80002D9A379012B01D0002038BD04F29C423D
:100ED8000121206802F0C4F8F6E700BF0A30544F39
:100EE80090F89434012B0CD010B50446012380F8F7
:100EF80094344174006802F012F8002084F89404D5
:100F080010BD0220704738B505468C4611F0800F99
:100F180029D101F00F0E0EEBCE04A40004F51474D1
:100F28000444211D0EEBCE0E00EB8E0E00208EF831
:100F380055020CF00F0C81F800C08A600B714A78DA
:100F48000AB1A1F81AC0022B1CD095F89434012BD1
:100F58001BD0012385F89434286801F004FD002093
:100F680085F8940438BD01F00F0000EBC00189003A
:100F780010312944043100EBC00005EB8000012446
:100F88004475D6E700234B71DFE70220EAE710B586
:100F980004460A4611F0800F20D101F00F0000EB43
:100FA800C0039B0003F514732344191D00EBC00014
:100FB80004EB8000002380F8553202F00F020A701B
:100FC80094F89434012B18D0012384F894342068C1
:100FD80001F018FD002084F8940410BD01F00F0002
:100FE80000EBC0039B0010332344191D00EBC00025
:100FF80004EB800001234375DFE70220EDE710B51D
:10100800144601F00F0C0CEBCC01890001F51471AA
:10101800014404310CEBCC0E00EB8E0ECEF86022AE
:10102800CEF864320023CEF868328EF855328EF846
:1010380054C28279012A04D0006801F0C9FD002059
:1010480010BDCEF87042F7E701F00F0101EBC101C6
:1010580000EB8101D1F86802704710B5144601F021
:101068000F0C0CEBCC0189001031014404310CEB5E
:10107800CC0E00EB8E0ECEF82020CEF824300023C4
:10108800CEF8283001238EF815308EF814C08279F6
:101098009A4204D0006801F09BFD002010BDCEF8F4
:1010A8003040F7E738B501F00F050279AA4238D386
:1010B80004460B4611F0800F1FD101EBC1018900D6
:1010C80001F514710144043103EBC30300EB8303FE
:1010D800002283F8552201238B700D7094F8943404
:1010E800012B20D0012384F89434206801F0BCFE41
:1010F80085B1002084F8940438BD05EBC50189004A
:1011080010310144043105EBC50300EB83030122D0
:101118005A75E0E704F29C42A179206801F0A0FF2B
:10112800E7E70120E8E70220E6E701F00F0302798C
:101138009A4230D310B5044611F0800F1ED103EB4C
:10114800C301890001F514710144043103EBC302A2
:1011580000EB8202002082F8550200228A700B7090
:1011680094F89434012B18D0012384F8943420681F
:1011780001F0A7FE002084F8940410BD03EBC3011E
:10118800890010310144043103EBC30200EB8202F1
:1011980001205075E1E7012070470220EDE708B50E
:1011A80011F0800F0CD101F00F0101EBC101890092
:1011B80001F5147101440431006801F093FC08BD85
:1011C80001F00F0101EBC101890010310144043124
:1011D800F2E72DE9F04F83B004460568284601F090
:1011E800FAFE10B103B0BDE8F08F0646206801F0A2
:1011F800C2FE0028F6D005F50067BB68C3F30D23CF
:10120800C4F8D434206801F0B6FE10F0020F04D000
:101218002268536903F002035361206801F0ABFEB2
:1012280010F0100F13D02268936923F01003936114
:10123800D5F8208008F00F09C8F34343022B4BD0A0
:10124800062B6FD02268936943F0100393612068DE
:1012580001F091FE10F4002F76D1206801F08BFE8A
:1012680010F4802F40F0E080206801F084FE002810
:10127800C0F26181206801F07EFE10F4006F09D091
:10128800BB6813F0010F40F06E812268536903F4C4
:1012980000635361206801F06EFE10F4805F40F037
:1012A8006681206801F067FE10F4005F40F0B381AA
:1012B800206801F060FE10F0080F40F0C48120683B
:1012C80001F059FE10F0800F00F0D781AB6923F0D0
:1012D8008003AB610126C0E147F6F07318EA030FFB
:1012E800B0D04FEA181B4FEAC903019309EBC90AAA
:1012F80004EB8A0AC8F30A12DAF86012284601F0E9
:1013080089FDCBF30A0BDAF860325B44CAF8603225
:10131800019B4B4404EB8303D3F868325B44CAF85F
:1013280068328FE7082204F29C41284601F072FDDA
:10133800C8F30A1809EBC90204EB8202D2F8683232
:101348004344C2F868327DE7206801F018FE804601
:10135800B14635E005EB49130122C3F8082B49468D
:101368002046FFF713FD3CE005EB49130822C3F8BC
:10137800082B49462046FFF78BFD35E009EBC903EA
:1013880004EB830393F85732012B41D005EB491343
:101398000222C3F8082B1AF0200F04D005EB4913DA
:1013A8002022C3F8082B1AF4005F05D005EB491377
:1013B8004FF40052C3F8082B09F101094FEA580805
:1013C800B8F1000F3FF449AF18F0010FF4D05FFAFD
:1013D80089FB5946206801F0E2FD824610F0010FB2
:1013E800B8D11AF0080FBFD11AF0100F04D005EBCE
:1013F80049131022C3F8082B1AF0020FCBD06B69DF
:1014080013F0800FBAD07B6843F480637B60B5E744
:1014180009EBC90304EB8303002283F857225946DA
:10142800204603F051F8B1E7206801F0B0FD80468E
:10143800B14625E05946204603F002F81AF0080F95
:1014480004D005EB49130822C3F808291AF0100F35
:1014580004D005EB49131022C3F808291AF0400FED
:1014680004D005EB49134022C3F808291AF0020FEB
:1014780040D11AF0800F59D109F101094FEA5808F3
:10148800B8F1000F3FF4F0AE18F0010FF4D05FFA96
:1014980089FB5946206801F08BFD824610F0010F48
:1014A800CCD009F00F03012101FA03F27B6B23EA88
:1014B80002037B6305EB4913C3F80819A3798B4230
:1014C800B8D109EBC90304EB8303D9691A6A0A4442
:1014D8001A62B9F1000FADD109EBC90304EB83031C
:1014E8005B6A002BA6D104F29C420121206801F01E
:1014F800B7FD9FE74946284601F00AF909EBC903F9
:1015080004EB8303DB7D012B05D005EB4913022295
:10151800C3F80829ADE709EBC90304EB83030022EC
:10152800DA755946204602F0D5FFEEE749462046CF
:10153800FFF720FBA0E77B6823F001037B6094F8AA
:10154800CC34012B08D0204602F0B8FF226853693A
:1015580003F0004353618DE6002184F8CC14204643
:1015680000F03EF9F2E7204602F090FF8DE67B6836
:1015780023F001037B601021206801F0C9F81AE00C
:1015880005EB46134FF67F31C3F80819D3F8002945
:1015980022F40012C3F80029C3F8081BD3F8002B63
:1015A80022F40012C3F8002BD3F8002B42F000629B
:1015B800C3F8002B01362379B342E1D8FB6943F025
:1015C8000113FB61E37BDBB1D7F8843043F00B03F5
:1015D800C7F884307B6C43F00B037B64D5F8003884
:1015E80023F4FE63C5F8003804F29C42A179206810
:1015F80001F036FD2268536903F48053536150E6C5
:101608007B6943F4005343F02B037B613B6943F050
:101618000B033B61E2E7206801F012FD206801F04E
:1016280091F9E071266800F0F3FB0146E279304653
:1016380000F0F0FF204602F014FF2268536903F41B
:101648000053536134E6204602F005FF22685369CF
:1016580003F00803536132E601362379B3420CD90B
:1016680006EBC60304EB830393F85732012BF3D13F
:10167800F1B22046FFF793FDEEE7206801F07BFC0E
:1016880010F4801F25D1206801F075FC10F4001FAC
:1016980059D0012326E001362379B3421BD905EB43
:1016A8004613D3F8002906EBC60304EB83031B7E1D
:1016B800012BF0D1002AEEDA06EBC60304EB830314
:1016C8000122DA7566F07F01C9B22046FFF767FD8F
:1016D800E1E70126E0E72268536903F480135361C8
:1016E800D1E7013322799A4228D905EB4312D2F87F
:1016F800001B03EBC30204EB820292F85822012A72
:10170800EFD10029EDDA01F48031D4F8D42402F0C5
:1017180001029142E5D103EBC30204EB82020121ED
:1017280082F85712AA6942F08002AA616A6912F027
:10173800800FD6D17B6843F400737B6022685369BD
:1017480003F400135361206801F015FC10F0804F7A
:1017580010D1206801F00FFC10F0040F3FF442ADE7
:1017680023685D6815F0040F0DD1226853682B4378
:10177800536037E5204602F0B3FE2268536903F050
:1017880080435361E5E7204602F0B0FEEDE710B470
:101798000468606A29B940EA0240A062002010BCCF
:1017A80070478C46A36A00EB1340002308E003F15E
:1017B800400104EB8101496800EB11400133DBB2C1
:1017C8000CF1FF318B42F2D340EA02400CF13F01A9
:1017D80004EB81014860E1E7036859620020704723
:1017E80070470000002800F0E08170B582B0044620
:1017F800036813F0010F3BD09F4B9B6803F00C0369
:10180800042B2CD09C4B9B6803F00C03082B21D095
:101818006368B3F5803F4FD0B3F5A02F52D0964BF5
:101828001A6822F480321A601A6822F480221A6038
:101838006368002B50D0FFF725F805468E4B1B68D0
:1018480013F4003F14D1FFF71DF8401B6428F5D9A5
:101858000320B1E1884B5B6813F4800FD8D0864B26
:101868001B6813F4003F03D06368002B00F09F81CE
:10187800236813F0020F54D07F4B9B6813F00C0FB2
:101888003ED07D4B9B6803F00C03082B33D0E368F4
:10189800002B68D0794B01221A60FEF7F3FF05464A
:1018A800754B1B6813F0020F54D1FEF7EBFF401B7A
:1018B8000228F5D903207FE16F4A136843F4803387
:1018C8001360B5E76C4B1A6842F480221A601A68F4
:1018D80042F480321A60ABE7FEF7D4FF0546664B48
:1018E8001B6813F4003FC3D0FEF7CCFF401B6428ED
:1018F800F5D9032060E1604B5B6813F4800FC6D113
:101908005D4B1B6813F0020F03D0E368012B40F016
:101918005081594A136823F0F803216943EAC10347
:101928001360236813F0080F42D063696BB3534BFD
:101938000122C3F8802EFEF7A5FF05464E4B5B6FCC
:1019480013F0020F34D1FEF79DFF401B0228F5D992
:10195800032031E1484A136823F0F803216943EA78
:10196800C1031360DDE7454B00221A60FEF78AFFCA
:101978000546414B1B6813F0020FD2D0FEF782FFD9
:10198800401B0228F5D9032016E13C4B0022C3F87E
:10199800802EFEF777FF0546374B5B6F13F0020F7B
:1019A80006D0FEF76FFF401B0228F5D9032003E19C
:1019B800236813F0040F77D02F4B1B6C13F0805F54
:1019C80033D1002301932C4B1A6C42F080521A64D5
:1019D8001B6C03F080530193019B0125284B1B6866
:1019E80013F4807F23D0A368012B34D0052B38D083
:1019F800214B1A6F22F001021A671A6F22F00402B3
:101A08001A67A368002B3DD0FEF73CFF06461A4B29
:101A18001B6F13F0020F46D1FEF734FF801B41F213
:101A280088339842F3D90320C6E00025D6E7144A44
:101A3800136843F480731360FEF724FF0646104BC7
:101A48001B6813F4807FCED1FEF71CFF801B022891
:101A5800F5D90320B0E0084A136F43F00103136778
:101A6800CFE7054B1A6F42F004021A671A6F42F06B
:101A780001021A67C5E700BF00380240000047426C
:101A880000700040FEF7FEFE0646524B1B6F13F037
:101A9800020F08D0FEF7F6FE801B41F28833984209
:101AA800F3D9032088E0EDB9A369002B00F0838007
:101AB800484A926802F00C02082A51D0022B17D02B
:101AC800454B00221A66FEF7DDFE0446414B1B68B3
:101AD80013F0007F42D0FEF7D5FE001B0228F5D98F
:101AE800032069E03B4A136C23F080531364DBE75F
:101AF800394B00221A66FEF7C5FE0546354B1B68B2
:101B080013F0007F06D0FEF7BDFE401B0228F5D972
:101B1800032051E0E369226A1343626A43EA8213AD
:101B2800A26A5208013A43EA0243E26A43EA0263BC
:101B3800284A5360284B01221A66FEF7A3FE044682
:101B4800244B1B6813F0007F06D1FEF79BFE001B99
:101B58000228F5D903202FE000202DE000202BE0FB
:101B6800012B2BD01B4B5B6803F48001E269914287
:101B780026D103F03F02216A8A4223D1616A47F6DF
:101B8800C0721A40B2EB811F1ED103F44031A26A21
:101B98005208013AB1EB024F18D103F07063E26AC0
:101BA800B3EB026F14D1002006E00120704701203A
:101BB80002E0012000E0002002B070BD0120FBE738
:101BC8000120F9E70120F7E70120F5E70120F3E715
:101BD8000120F1E7003802400000474208B5314BC8
:101BE8009B6803F00C03042B57D0082B57D12D4BBF
:101BF8005A6802F03F025B6813F4800F2AD0294B21
:101C08005968C1F3881C4FEA4C11B1EB0C006EEB1C
:101C18000E0E4FEA8E1343EA90638101091A63EBB3
:101C28000E03DB0043EA5173C90011EB0C0C43F1BE
:101C38000003590200234FEA4C2041EADC51FEF729
:101C4800BFFA184B5B68C3F3014301335B00B0FB79
:101C5800F3F025E0134B5968C1F3881C4FEA4C1187
:101C6800B1EB0C006EEB0E0E4FEA8E1343EA906355
:101C78008101091A63EB0E03DB0043EA5173C900C3
:101C880011EB0C0C43F10003990200234FEA8C205E
:101C980041EA9C51FEF794FAD3E7034800E0034871
:101CA80008BD00BF0038024000127A000024F4008A
:101CB800002800F09B8070B50D4604464F4B1B680A
:101CC80003F007038B4208D2CBB24C4A1370136857
:101CD80003F007038B4240F08B80236813F0020F58
:101CE80017D013F0040F04D0454A936843F4E05327
:101CF8009360236813F0080F04D0414A936843F4B3
:101D0800604393603E4A936823F0F003A1680B4355
:101D18009360236813F0010F32D06368012B21D040
:101D28009A1E012A25D9364A126812F0020F61D08C
:101D380033498A6822F0030213438B60FEF7A2FD41
:101D480006462F4B9B6803F00C036268B3EB820FC7
:101D580016D0FEF797FD801B41F288339842F0D9E0
:101D6800032042E0264A126812F4003FE0D1012025
:101D78003BE0234A126812F0007FD9D1012034E0F9
:101D88001E4B1B6803F00703AB4207D9EAB21B4B93
:101D98001A701B6803F00703AB422DD1236813F0B8
:101DA800040F06D0164A936823F4E053E1680B4306
:101DB8009360236813F0080F07D0114A936823F43F
:101DC8006043216943EAC1039360FFF707FF0C4BA7
:101DD8009B68C3F303130B4AD35CD8400A4B1860C3
:101DE8000A4B1868FEF702FD002070BD01207047FD
:101DF8000120FAE70120F8E70120F6E7003C02405D
:101E08000038024028480008000000200800002090
:101E1800014B1868704700BF0000002030B4036A07
:101E2800026A22F0010202624268846924F07304A3
:101E38000D682C4323F0020C8B6843EA0C03104D09
:101E4800A84203D005F58065A84205D123F0080310
:101E5800CD682B4323F00403094DA84203D005F5B0
:101E68008065A84205D122F440724D692A438D69E4
:101E78002A43426084614A684263036230BC704707
:101E88000000014030B4036A026A22F480720262E0
:101E98004268C46924F0730C0C6844EA0C0523F406
:101EA80000738C6843EA0423114CA04203D004F564
:101EB8008064A04206D123F40063CC6843EA04237B
:101EC80023F480630A4CA04203D004F58064A04246
:101ED80007D122F440524C6942EA04128C6942EA62
:101EE80004124260C5614A68C263036230BC70472D
:101EF8000000014030B4036A026A22F48052026290
:101F08004468C26922F4E6420D6842EA052223F4D5
:101F180000538D6843EA0533094DA84203D005F5FF
:101F28008065A84204D124F480444D6944EA8514AC
:101F38004460C2614A680264036230BC704700BFF3
:101F48000000014010B4036A046A24F0010404622A
:101F5800846924F0F00C4CEA021223F00A030B43C4
:101F68008261036210BC704710B4036A046A24F0EB
:101F780010040462846924F4704C4CEA023223F0A1
:101F8800A00343EA01138261036210BC70478368AF
:101F980023F070030B4343F00703836070477047D7
:101FA8000368344A904212D0B0F1804F0FD0A2F5A6
:101FB8007C4290420BD002F58062904207D002F535
:101FC8008062904203D002F57842904203D123F018
:101FD80070034A681343274A90422AD0B0F1804FD1
:101FE80027D0A2F57C42904223D002F5806290422D
:101FF8001FD002F5806290421BD002F578429042D1
:1020080017D002F57052904213D002F580629042C8
:102018000FD002F5806290420BD0A2F59832904220
:1020280007D002F58062904203D002F580629042A8
:1020380003D123F44073CA68134323F080034A6929
:10204800134303608B68C3620B688362094B984231
:1020580003D003F58063984201D10B690363012320
:102068004361036913F0010F03D0036923F00103EF
:10207800036170470000014040B310B5044690F872
:102088003D30F3B1022384F83D30214651F8040B6A
:10209800FFF786FF012384F8463084F83E3084F841
:1020A8003F3084F8403084F8413084F8423084F876
:1020B800433084F8443084F8453084F83D300020BB
:1020C80010BD80F83C30FEF7CBFADBE70120704703
:1020D80040B310B5044690F83D30F3B1022384F8BC
:1020E8003D30214651F8040BFFF75AFF012384F8CD
:1020F800463084F83E3084F83F3084F8403084F825
:10210800413084F8423084F8433084F8443084F80D
:10211800453084F83D30002010BD80F83C30FFF792
:102128003EFFDBE70120704730B4036A026A22F001
:10213800100202624468826922F4E6420D6842EAAB
:10214800052223F020038D6843EA0513114DA842A8
:1021580003D005F58065A84206D123F08003CD6839
:1021680043EA051323F040030A4DA84203D005F5BE
:102178008065A84207D124F440644D6944EA850487
:102188008D6944EA8504446082614A688263036217
:1021980030BC70470000014038B590F83C30012B46
:1021A80066D004460D46012380F83C300C2A5AD8E4
:1021B800DFE802F0075959591B59595930595959EB
:1021C80044000068FFF72AFE2268936943F0080379
:1021D80093612268936923F00403936122689369E9
:1021E80029690B43936100203EE00068FFF79CFFDC
:1021F8002268936943F4006393612268936923F426
:102208008063936122689369296943EA0123936192
:10221800002029E00068FFF735FE2268D36943F003
:102228000803D3612268D36923F00403D3612268C9
:10223800D36929690B43D361002015E00068FFF7D3
:1022480059FE2268D36943F40063D3612268D369D5
:1022580023F48063D3612268D369296943EA01239F
:10226800D361002000E00120002384F83C3038BD11
:102278000220FCE710B4846824F47F4C42EA03226D
:102288000A4342EA0C02826010BC704790F83C3066
:10229800012B78D010B50446012380F83C30022386
:1022A80080F83D300268936823F47F4323F0770376
:1022B80093600B68602B4CD029D8402B54D00CD994
:1022C800502B22D1CA6849680068FFF73BFE5021AD
:1022D8002068FFF75CFE002005E0202B0DD009D90F
:1022E800302B0AD00120012384F83D30002384F8E4
:1022F8003C3010BD0BB1102B05D119462068FFF7F3
:1023080046FE0020EFE70120EDE70120EBE7B3F5FB
:10231800805F34D0B3F5005F0CD1CB684A68896818
:102328000068FFF7A7FF2268936843F4804393602F
:102338000020D8E7702B24D1CB684A6889680068E8
:10234800FFF798FF2268936843F0770393600020B3
:10235800C9E7CA6849680068FFF706FE6021206877
:10236800FFF715FE0020BEE7CA6849680068FFF756
:10237800E9FD40212068FFF70AFE0020B3E70020AE
:10238800B1E70120AFE70220704701F01F010123E8
:1023980003FA01FC036A23EA0C030362036A02FAE4
:1023A80001F10B430362704710B504460846002943
:1023B80042D194F83E30DBB2013B18BF0123002B19
:1023C8006ED1002851D1022384F83E300122014603
:1023D8002068FFF7DAFF2368334A934203D002F5F7
:1023E8008062934203D15A6C42F400425A642368D3
:1023F8002D4A934249D0B3F1804F46D0A2F57C4292
:10240800934242D002F5806293423ED002F5806248
:1024180093423AD002F57842934236D002F5705290
:10242800934232D0A2F5943293422ED01A6842F0E9
:1024380001021A60002032E0042908D008290DD0D2
:1024480094F84130DBB2013B18BF0123B7E794F899
:102458003F30DBB2013B18BF0123B0E794F84030AE
:10246800DBB2013B18BF0123A9E7042805D00828DF
:1024780007D0022384F84130A8E7022384F83F30CC
:10248800A4E7022384F84030A0E79A6802F0070224
:10249800062A07D01A6842F001021A60002010BD0F
:1024A8000120FCE70020FAE70000014090F83C30EA
:1024B800012B3CD010B4012380F83C30022380F873
:1024C8003D3003685A689C6822F0700C0A6842EA3A
:1024D8000C025A600368174A93421AD0B3F1804F2E
:1024E80017D0A2F57C42934213D002F58062934242
:1024F8000FD002F5806293420BD002F578429342E6
:1025080007D002F57052934203D0A2F59432934259
:1025180004D124F080044A6814439C60012380F8A5
:102528003D30002380F83C30184610BC704702202C
:10253800704700BF0000014082B000230193019B57
:1025480001330193019BB3F1706F15D80369002B18
:10255800F5DA00230193036943F001030361019B4A
:1025680001330193019BB3F1706F08D8036913F02D
:10257800010FF4D1002000E0032002B070470320CF
:10258800FBE784B010B5044603A880E80E009DF868
:102598001130012B21D1A36B23F48033A363E368AB
:1025A80023F4840323F04003E360E36823F4401337
:1025B800E3609DF81830012B0AD02046FFF7BCFFD6
:1025C8009DF80E30012B1CD0BDE8104004B07047B8
:1025D800E36843F48013E360EFE7E36843F0400304
:1025E800E3602046FFF7A8FF9DF8153023B9A36BD9
:1025F80043F48033A363E3E7A36B23F48033A3633B
:10260800DEE7A36843F00603A360A36843F0200352
:10261800A360D9E7022A0AD00921C26822F47052BD
:10262800C260C36843EA8123C36000207047234B1C
:102638000B44234A93422FD9224B0B44224A9342FC
:102648002CD9A1F57403A3F51053204A934227D936
:10265800A1F18373A3F5E7431D4A934222D31D4B8F
:102668000B441D4A93421FD91C4B0B441C4A9342EE
:102678001CD31C4B0B441C4A934219D3A1F1B773CA
:10268800A3F55853194A934214D3194B0B44194ACA
:10269800934211D20721C0E70F21BEE70E21BCE704
:1026A8000D21BAE70C21B8E70B21B6E70A21B4E7F8
:1026B8000921B2E70821B0E70621AEE7405327FF1A
:1026C800FF340C00401E1BFF3F420F007F4F1200DB
:1026D80020D6130060B6E5FE5FE3160000D3CEFEF9
:1026E80040771B00C05BB3FEC09121002075380005
:1026F800E05459FEE09C4100836843F00103836085
:1027080000207047836823F001038360002070472E
:1027180082B000230193019B01330193019BB3F124
:10272800706F15D80369002BF5DA0023019389012E
:1027380041F020010161019B01330193019BB3F139
:10274800706F08D8036913F0200FF4D1002000E05F
:10275800032002B070470320FBE782B000230193F7
:10276800019B01330193019BB3F1706F13D8036987
:10277800002BF5DA0023019310230361019B013339
:102788000193019BB3F1706F08D8036913F0100F20
:10279800F4D1002000E0032002B070470320FBE7DB
:1027A800D0F800381943C0F800180020704700001E
:1027B80084B0F8B5044607A880E80E00002306E0B8
:1027C80003F1400204EB82020021516001330E2B19
:1027D800F6D99DF8266006BBD4F8043843F0020306
:1027E800C4F80438A36B43F40013A363A36B23F466
:1027F8000023A363A36B23F48023A3630023C4F8FB
:10280800003E9DF82130012B15D19DF81F306BB982
:1028180000212046FFF7C4FF11E0A36B23F4001347
:10282800A363A36B43F40023A363E7E701212046D6
:10283800FFF7B6FF03E003212046FFF7B1FF1021A1
:102848002046FFF765FF054600B101252046FFF742
:1028580084FF00B1012504F5006C0023CCF810308A
:10286800CCF81430CCF81C300AE0CBB94FF000603B
:10287800C2F8000900220A614FF67F328A600133EC
:102888009DF81C10994210D904EB431202F510610F
:10289800D2F800090028E8DB0020C2F80009E9E7BF
:1028A8004FF09040C2F80009E4E700230AE0BBB10A
:1028B8004FF09047C2F8007B002202614FF67F324A
:1028C80082600133994210D904EB431202F530605B
:1028D800D2F8007B002FEADB0027C2F8007BEBE789
:1028E8004FF00067C2F8007BE6E7DCF8103023F40D
:1028F8008073CCF810300023A3616FF080436361CC
:102908009DF81E301BB9A36943F01003A361A269A7
:102918000B4B1343A3619DF822301BB1A36943F00D
:102928000803A361012E04D02846BDE8F84004B08E
:102938007047A36943F0804343F00403A361F3E7BE
:1029480000383C80D0F8083813F0060307D0022B73
:1029580007D0062B01D00F207047022070470020B7
:1029680070470220704710B591F800C04B78012BD2
:1029780023D000F5006ED0F81C380CF00F040122AB
:10298800A24043EA0243C0F81C3800EB4C10D0F8D0
:10299800003B13F4004F0ED1D0F8003B8A68C2F315
:1029A8000A02097942EA8142134343F0805343F40F
:1029B8000043C0F8003B002010BDD0F81C280CF0E4
:1029C8000F0E03FA0EF39BB21343C0F81C3800EB4A
:1029D8004C10D0F8003913F4004FECD1D0F800397E
:1029E8008A68C2F30A02097942EA814242EA8C5CA7
:1029F80043EA0C0343F0805343F40043C0F8003922
:102A0800D9E7000030B40B784A78012A26D000EBC9
:102A18004313D3F8002B002A52DBD0F83C480A783D
:102A280002F00F024FF0010C0CFA02F224EA024203
:102A3800C0F83C28D0F81C28097801F00F010CFADE
:102A480001FC22EA0C42C0F81C28D3F8001B234AD8
:102A58000A40C3F8002B002030BC704700EB43133A
:102A6800D3F80029002A1EDBD0F83C580A7802F077
:102A78000F02012404FA02F292B225EA0202C0F817
:102A88003C28D0F81C28097801F00F018C40A4B22A
:102A980022EA0404C0F81C48D3F80019104A0A4076
:102AA800C3F80029D7E7D3F8002942F00062C3F839
:102AB8000029D3F8002942F08042C3F80029D3E75F
:102AC800D3F8002B42F00062C3F8002BD3F8002B98
:102AD80042F08042C3F8002B9FE700BF0078F3EF75
:102AE800007833EC10B483B0024600230193487891
:102AF80001280AD00B7802EB4313D3F8000B002807
:102B08002CDB002003B010BC70470B7802EB43139A
:102B1800D3F80049002C01DB0020F3E7D3F8004983
:102B280044F00064C3F800490B7802EB4313D3F870
:102B3800004944F08044C3F80049019B01330193E4
:102B4800019C42F210739C42DCD80B7802EB4313D1
:102B5800D3F80039002BF0DB0020D3E7D3F8000BC3
:102B680040F00060C3F8000B0B7802EB4313D3F876
:102B7800000B40F08040C3F8000B019B0133019328
:102B8800019842F21073984208D80B7802EB43136D
:102B9800D3F8003B002BF0DB0020B3E70120B1E7BE
:102BA80010B59DF8084084B903334FEA930E4FF0EF
:102BB800000C08E000EB023303F5805351F8044B96
:102BC8001C600CF1010CF445F4D3002010BD00008A
:102BD800F0B583B00C784B78012B2FD000EB441C58
:102BE8000CF530631D69ED0CED041D611D6925F0C0
:102BF800FF5525F4C0151D61002C40F0CC800C69F0
:102C08000CB18C680C618C680C621D69C4F31204E9
:102C18002C431C611C6944F400241C61012A00F047
:102C2800DD800B79012B00F0DF80DCF8003B43F0FE
:102C38000443CCF8003B002003B0F0BD0B6983BB14
:102C480000EB4413D3F8105925F0FF5525F4C015AF
:102C5800C3F81059D3F8105945F40025C3F8105992
:102C6800D3F81059ED0CED04C3F81059012A50D0CF
:102C780000EB4414D4F8003943F00443C4F8003995
:102C88000B79012B6ED00B69002BD4D0D0F83438D7
:102C98000A7802F00F0101228A401343C0F8343841
:102CA800C9E700EB441303F510631D69ED0CED044F
:102CB8001D611D6925F0FF5525F4C0151D61DCB99E
:102CC8000E698D68AE4200D90D611D6945F4002575
:102CD8001D611D690E69C6F3120C45EA0C051D61DC
:102CE8000D79012DC2D11D6925F0C0451D611D69F1
:102CF80045F000551D61B9E71E690D698F683D44AF
:102D0800013DB5FBF7F5424F07EAC54535431D615F
:102D1800DFE7CB691BB100EB4412C2F814390B7919
:102D2800012B08D000EB4410D0F8003943F00443DD
:102D3800C0F800397FE7D0F8083813F4807F08D14D
:102D480000EB4412D2F8003943F00053C2F80039BE
:102D5800E8E700EB4412D2F8003943F08053C2F898
:102D68000039DFE7D0F8083813F4807F0CD1D4F8A5
:102D7800003943F00053C4F8003900920B8A0A78EE
:102D8800C968FFF70DFF56E7D4F8003943F08053C0
:102D9800C4F80039F1E70C6954B91C698D68C5F3AA
:102DA80012052C431C611C6944F400241C6135E79E
:102DB8008D682C44013CB4FBF5F4A4B204FB05F582
:102DC8000D621D69124E06EAC4442C431C611C693D
:102DD8000D6AC5F312052C431C611FE7CA68002A57
:102DE8003FF41FAF5A611CE7D0F8083813F4807F0E
:102DF80006D1DCF8003B43F00053CCF8003B14E765
:102E0800DCF8003B43F08053CCF8003B0DE700BFF3
:102E18000000F81F00B583B0844608464FEA920EBA
:102E280002F00302002305E00CF58051096840F820
:102E3800041B01337345F7D39AB10CF5805CDCF8B9
:102E4800003001934FF0000C5FFA8CF3D900019B1E
:102E5800CB4000F8013B0CF1010C013A92B2002A78
:102E6800F2D103B05DF804FB0B784A78012A14D03C
:102E780000EB4310D0F8002B002A06DB2BB1D0F86A
:102E8800003B23F08043C0F8003BD0F8003B43F4FC
:102E98000013C0F8003B0020704700EB4310D0F847
:102EA8000029002A06DB2BB1D0F8003923F0804333
:102EB800C0F80039D0F8003943F40013C0F80039DD
:102EC800E9E70B784A78012A0ED000EB4310D0F8D6
:102ED800003B23F40013C0F8003B0B79023BDBB244
:102EE800012B15D90020704700EB4310D0F80039AA
:102EF80023F40013C0F800390B79023BDBB2012B35
:102F0800F0D8D0F8003943F08053C0F80039E9E729
:102F1800D0F8003B43F08053C0F8003BE2E7D0F81C
:102F2800003823F4FE63C0F80038D0F800380901EF
:102F380001F4FE611943C0F8001800207047D0F86A
:102F4800003E23F00303C0F8003ED0F8043823F015
:102F58000203C0F8043800207047D0F8003E23F080
:102F68000303C0F8003ED0F8043843F00203C0F869
:102F78000438002070474269806910407047D0F8D3
:102F8800183800F50060C0691840000C7047D0F888
:102F9800183800F50060C069184080B2704700EB2F
:102FA8004111D1F8082B00F50060406910407047C6
:102FB80010B4D0F81048D0F8343801F00F02D340DC
:102FC800DB01DBB2234300EB411000F510608068A1
:102FD800184010BC7047406900F00100704738B5D0
:102FE8000546C36823F0C043C360012913D019BB49
:102FF800C36843F08043C36000240A20FDF748FCFF
:103008000A342846FFF7E7FF08B1C72CF5D9C82CC2
:1030180014D0002038BDC36843F00053C3600024B7
:103028000A20FDF735FC0A342846FFF7D4FF0128AB
:10303800EDD0C72CF4D9EAE70120EBE70120E9E756
:10304800D0F8003923F4FF6323F00703C0F80039F0
:10305800D0F8043843F48073C0F80438002070476F
:1030680010B4046C144B9C4203D9D0F8003B002BDD
:1030780016DB0024C0F8104BD0F8104B44F40024A1
:10308800C0F8104BD0F8104B44F01804C0F8104B9F
:10309800D0F8104B44F0C044C0F8104B012902D0BE
:1030A800002010BC7047C0F8142BD0F8003B43F048
:1030B8008023C0F8003BF3E70A30544F10B5D0F82E
:1030C800D43203F1B00250F822408CB100EB8200F8
:1030D80043687BB194F80002FF280DD09B6894F8F0
:1030E800012221469847FF2384F80032002010BDB2
:1030F8000320FCE70020FAE70020F8E70A23038012
:103108000048704788000020F8B506460F4F822116
:10311800384600F041FC05460121384600F03CFCE9
:1031280004468121384600F037FC0DB11022AA71FF
:103138001CB1402222710022627118B14022027132
:1031480000224271432333800048F8BD4400002028
:10315800F8B506460F4F8221384600F01DFC05469B
:103168000121384600F018FC04468121384600F059
:1031780013FC0DB11022AA711CB140222271002249
:10318800627118B1402202710022427143233380D8
:103198000048F8BD44000020F8B506460F4F8221CC
:1031A800384600F0F9FB05460121384600F0F4FBEB
:1031B80004468121384600F0EFFB0DB11022AA71B8
:1031C8001CB1002222710222627118B10022027120
:1031D80002224271432333800048F8BD4400002096
:1031E80038B5D0F8D432B03350F8235095B10446EE
:1031F80001F0CCF9C5F80C02D4F8D432B03304EBA2
:1032080083046368DB6805F50371D5F80402984701
:10321800002038BD0320FCE738B5D0F8C852D0F8F4
:10322800D432B03350F8234084B301F00F0303EBDA
:10323800830200EB820292694AB103EBC30C05EBEF
:103248008C05ED69B2FBF5FC05FB1C2292B100234D
:10325800C4F81432D0F8D432B03300EB830043689A
:103268001B69ABB10A4604F50471D4F80802984703
:10327800002038BD03EB830300EB830300249C612B
:103288002346224601F0CAF92046F2E70320F0E778
:103298000020EEE7F0B583B0D0F8D43203F1B002E5
:1032A80050F8227000228DF80720ADF80420002F76
:1032B8007BD004460D46097811F0600634D0202EE4
:1032C8006CD1EA882AB311F0800F07D16B7887F8A0
:1032D8000032EA883F2A13D8D2B212E0B03300EBAA
:1032E80083035B689B68394668789847EA88072AA9
:1032F80028BF07223946204600F0FEFE002651E08E
:10330800402287F801223946204600F00AFF0026AD
:1033180048E0B03300EB830463689B6800222946C9
:103328006878984700263DE06F780B2F31D8DFE8A2
:1033380007F006393030303030303030162690F80B
:103348009C32DBB2032B04D0294600F062FB032633
:1033580028E0022201A900F0CFFE3E4622E090F8C4
:103368009C32DBB2032B04D0294600F052FB032623
:1033780018E001220DF1070100F0BEFE12E090F8FE
:103388009C32DBB2032B0DD0294600F042FB03260A
:1033980008E0294600F03DFB032603E0294600F03B
:1033A80038FB0326304603B0F0BD0326FAE738B5EC
:1033B8000446812101F012F90025258701212046C4
:1033C80001F00CF9A4F878518221204601F006F9A1
:1033D800A4F84C50A4F84E50D4F8D43203F1B002FB
:1033E80054F822209AB1B03304EB83035B685B681E
:1033F8009847D4F8D432B03354F8230001F0D0F809
:10340800D4F8D432B03344F82350C4F8BC52002066
:1034180038BD70B504464FF4077001F0BDF80028B8
:1034280049D005464FF40772002101F02BF9D4F872
:10343800D432B03344F82350C4F8BC52237C002B58
:1034480041D14FF4007302228121204601F0BBF8DC
:10345800012626874FF4007302223146204601F0E8
:10346800B2F8A4F878611023A4F84E300823032298
:103478008221204601F0A7F80123A4F84C30002649
:10348800C5F80462D4F8D432B03304EB83035B6824
:103498001B689847C5F81462C5F81862D5F8042265
:1034A80062B3257C1DBB4FF400730121204601F057
:1034B800BDF8284670BDD4F8D432B033002244F8A1
:1034C80023200225F5E7402302228121204601F02E
:1034D8007AF801262687402302223146204601F049
:1034E80072F8A4F878611023A4F84E30BEE74023A0
:1034F8000121204601F09AF80025DAE70225D8E7ED
:1035080039B1D0F8D432B03300EB830041600020E9
:10351800704703207047D0F8D432B03350F82330C6
:103528002BB1C3F80812C3F81022002070470320FB
:103538007047D0F8D432B03350F823301BB1C3F8F9
:103548000412002070470320704708B5D0F8D43221
:10355800B03350F823209AB1D2F814320BB10120BD
:1035680008BD0123C2F81432D2F81032C362D2F86F
:103578001032D2F80822812101F050F80020EFE73C
:103588000320EDE710B5D0F8D432B03350F823203B
:1035980092B1047C44B94FF40073D2F8042201219B
:1035A80001F044F8204610BD4023D2F8042201213E
:1035B80001F03CF80024F5E70324F3E798B108B5D7
:1035C80003460020C3F8B802C3F8C402C3F8D00207
:1035D80009B1C3F8B412012183F89C121A70184675
:1035E80000F08AFF08BD0320704710B582B00023A1
:1035F800ADF8063089B10446C0F8B812CB6A23B1D9
:103608000DF106009847C4F8D002D4F8D832013337
:10361800C4F8D832002002B010BD0320FBE708B57B
:1036280000F0C9FF08BD08B5D0F8B83213B11B685F
:10363800984708BD0020FCE708B5D0F8B8325B68A9
:10364800984700B908BD0320FCE738B5044600F2E6
:10365800AA25284600F0C9F90123C4F89432B4F821
:10366800B032C4F8983294F8AA1201F01F03012B63
:103678000DD0022B10D02BB101F08001204600F0B4
:10368800B5FF03E02946204600F084FB38BD2946F3
:10369800204600F0BAFBF9E72946204600F0F7FB80
:1036A800F4E7F8B50446012380F89C320023C0F8FB
:1036B80094324360C0F8A43280F8A032D0F8B8320F
:1036C800DBB15B68DBB1002198470746C8B94023E6
:1036D80000221146204600F076FF0126A4F8646116
:1036E8004025C4F860512B4600228021204600F076
:1036F8006AFFA68425623846F8BD0027E7E7002759
:10370800E5E70327E3E701740020704790F89C324F
:10371800DBB2042B04D090F89C32DBB280F89D32E7
:10372800042380F89C320020704790F89C32DBB26A
:10373800042B01D00020704790F89D32DBB280F84E
:103748009C32F7E708B590F89C32DBB2032B01D026
:10375800002008BDD0F8B832002BF9D0DB69002B67
:10376800F6D09847F4E708B5D0F8D432AE3350F81D
:1037780023205AB190F89C32DBB2032B01D00020F1
:1037880008BD136A23B198470020F9E70320F7E73B
:103798000020F5E708B5D0F8D432AE3350F823202E
:1037A8005AB190F89C32DBB2032B01D0002008BD3F
:1037B800536A23B198470020F9E70320F7E7002070
:1037C800F5E70020704708B5012380F89C32D0F84F
:1037D800B83223B15B680179984710B908BD002059
:1037E800FCE70320FAE7002070470020704738B54F
:1037F80004460D46002943D11346D0F89422032AE3
:1038080001D0084638BDD0F85C11D0F8602191424B
:1038180012D890F8AA3203F01F03012B17D0022BFD
:103828001CD0284694F89C32DBB2032B1BD02046D0
:1038380000F08EFC2846E5E7891AC0F85C118A4238
:1038480028BF0A46194600F07BFC2846DAE790F8BC
:10385800AE12FFF7C8FF0028E9D1E3E790F8AE12EF
:10386800FFF7C3FFF7E700F1AE0354F823301A69F6
:10387800002ADCD0C4F8D4021B6920469847D6E752
:1038880001F07F01FFF7B1FF90B994F89C32DBB2E9
:10389800032BB7D100F1AE0354F823309A69002AFC
:1038A800B0D0C4F8D4029B69294620469847A9E7B6
:1038B8000020A7E738B504460D4600294BD113462A
:1038C800D0F89422022A07D094F8A00218B1002355
:1038D80084F8A032284638BDC269016A8A420ED8E7
:1038E8008A4218D094F89C32DBB2032B27D080216F
:1038F800204600F07BFE204600F035FCE4E7521A33
:10390800C261194600F005FC00231A4619462046F4
:1039180000F08CFED8E783699942E3D8D0F8982262
:103928009342DFD20022114600F0F3FB0021C4F8D5
:1039380098120B460A46204600F078FEC4E7D4F8F1
:10394800B832DA68002AD2D00022C4F8D422DB6860
:1039580020469847CBE741F08001FFF746FF90B932
:1039680094F89C32DBB2032BB5D100F1AE0354F8C6
:1039780023305A69002AAED0C4F8D4025B692946BC
:1039880020469847A7E70020A5E703780A8813444C
:103998000B80037818447047428803789A4218D9F4
:1039A80030B583B004460D46ADF806306288BDF8E0
:1039B80006309A420AD90DF10601FFF7E6FF43786F
:1039C800052BF3D18378AB42F0D100E0002003B09F
:1039D80030BD002070470346002002E00130C0B22D
:1039E80001331A78002AF9D170470B7803704B78A5
:1039F80043708B78CA7843EA022343800B794A796B
:103A080043EA022383808B79CA7943EA0223C3807D
:103A1800704710B50446802100F0E8FD00212046DB
:103A280000F0E4FD10BD30B583B004460D46002318
:103A3800ADF806304A88130A013B062B00F2AB802A
:103A4800DFE803F0041F33A9A98D9A00D0F8B43237
:103A58001B680DF10601007C9847EA88002A00F0EF
:103A6800A380BDF80630002B00F099809A4228BF49
:103A78001A46ADF806200146204600F03DFB03B08B
:103A880030BD037C43B9D0F8B8329B6A0DF106000B
:103A9800984702234370E0E7D0F8B832DB6A0DF1AB
:103AA8000600984702234370D7E7D2B2052A52D8B6
:103AB800DFE802F003101D2A3744D0F8B4325B68FF
:103AC80023B10DF10601007C9847C6E72946FFF7A8
:103AD800A0FFD4E7D0F8B4329B6823B10DF10601FA
:103AE800007C9847B9E72946FFF793FFC7E7D0F866
:103AF800B432DB6823B10DF10601007C9847ACE7CE
:103B08002946FFF786FFBAE7D0F8B4321B6923B11C
:103B18000DF10601007C98479FE72946FFF779FFDA
:103B2800ADE7D0F8B4325B6923B10DF10601007C32
:103B3800984792E72946FFF76CFFA0E7D0F8B43220
:103B48009B6923B10DF10601007C984785E729465A
:103B5800FFF75FFF93E72946FFF75BFF8FE7037CDB
:103B680033B9D0F8B8325B6B0DF10600984774E7AB
:103B78002946FFF74EFF82E7037C43B9D0F8B832F5
:103B88001B6B0DF1060098470723437065E729462C
:103B9800FFF73FFF73E72946FFF73BFF6FE729462B
:103BA8002046FFF736FF6AE7204600F0D1FA66E7BD
:103BB80038B504468B88FBB9CB88EBB94B887F2B8B
:103BC8001AD803F07F0590F89C32DBB2032B0CD097
:103BD80080F89E52294600F019FD204600F0B8FAF8
:103BE80035B1022384F89C3209E0FFF712FF06E0A2
:103BF800012384F89C3202E02046FFF70AFF38BD13
:103C080070B504460E468D782F4B1D70012D10D8C7
:103C180090F89C32DBB2022B0FD0032B26D0FFF793
:103C2800F8FE294B19782046FFF706FD032528469C
:103C380070BDFFF7EEFE0325F9E7A5B145602946FB
:103C4800FFF7F1FC054638B131462046FFF7E1FEA3
:103C5800022384F89C32EAE7204600F079FA03232D
:103C680084F89C32E3E700F073FAE0E7CDB14168ED
:103C78008D4225D0C9B2FFF7DFFC134B197861607C
:103C88002046FFF7D0FC0546B0B131462046FFF785
:103C9800C0FE21792046FFF7CFFC022384F89C322E
:103CA800C5E7022380F89C3245602946FFF7C4FC2B
:103CB800204600F04DFABAE7204600F049FAB6E788
:103CC80000F046FA0025B2E78C05002008B5CB883D
:103CD800012B0BD190F89C32DBB2022B09D9032BB4
:103CE80009D10122011D00F007FA01E0FFF791FE5A
:103CF80008BD5BB213B9FFF78CFEF9E70146002354
:103D080041F8083F012200F0F7F9F1E708B590F80B
:103D18009C32013B022B12D8CB88022B0CD10123F9
:103D2800C360D0F8A4320BB10323C360022200F1B0
:103D38000C0100F0E1F908BDFFF76BFEFBE7FFF7A8
:103D480068FEF8E708B54B88012B04D0022B07D092
:103D5800FFF75FFE08BDC0F8A43200F0F9F9F9E7F3
:103D68008B881B0A80F8A03200F0F2F9F2E708B558
:103D780090F89C32013B022B09D84B88012B00D0CC
:103D880008BD0023C0F8A43200F0E2F9F8E7FFF715
:103D980040FEF5E738B50C7804F06004202C06D016
:103DA800402C04D06CB1FFF734FE002407E0D0F8B3
:103DB800D432AE3350F823309B68984704462046E7
:103DC80038BD4D78092D1DD8DFE805F012191C16ED
:103DD8001C08051C0F0BFFF726FEF0E7FFF7E8FEAF
:103DE800EDE7FFF70DFF0446E9E7FFF76FFFE6E7AA
:103DF800FFF78CFF2C46E2E7FFF7A4FFDFE7FFF7AA
:103E0800B6FFDCE7FFF705FED9E770B505460C46B7
:103E18000B7803F06003202B07D0402B05D023B18B
:103E2800FFF7F7FD0026304670BD95F89C32013B40
:103E3800022B26D82179012905D921462846FFF7E2
:103E4800E8FD0026EFE72846FFF7CDFC68B900F14A
:103E5800AE0255F82220916889B1C5F8D40293685A
:103E6800214628469847064600E00326E388002BAB
:103E7800D9D1002ED7D1284600F06AF9D3E7032616
:103E8800F4E721462846FFF7C4FD0026CBE72DE9D5
:103E9800F04106460D468B88DFB20C7804F06004CA
:103EA800202C08D0402C06D0DCB1FFF7B2FD00244E
:103EB8002046BDE8F08139463046FFF796FC0446B7
:103EC800002840F0F880C6F8D40200F1AE0356F896
:103ED80023309B68002BEBD0294630469847044690
:103EE800E6E791F80180B8F1010F31D0B8F1030F7E
:103EF80005D0B8F1000F67D0FFF78BFDD8E790F831
:103F08009C32DBB2022B04D0032B12D0FFF781FDC9
:103F1800CEE70FB1802F04D129463046FFF779FD4F
:103F2800C6E7394600F062FB8021304600F05EFBB0
:103F3800BEE74B8823B91FB1802F01D0CB881BB1B6
:103F4800304600F005F9B3E7394600F04FFBF7E7D4
:103F580090F89C32DBB2022B04D0032B12D0FFF76F
:103F680058FDA5E70FB1802F04D129463046FFF749
:103F780050FD9DE7394600F039FB8021304600F0BE
:103F880035FB95E74B88002B92D117F07F0F17D19F
:103F9800304600F0DDF839463046FFF726FC0028A9
:103FA80086D1C6F8D40200F1AE0256F822209268F3
:103FB800002A00F08280294630469047044677E779
:103FC800394600F01BFBE3E790F89C22D2B2022AA4
:103FD80005D0032A27D0FFF71CFD444668E70FB138
:103FE800802F13D113F0800F14D107F07F0707EB50
:103FF8008707B90001F5A8713144043100230B602B
:104008000222304600F078F8444651E7FFF701FDF8
:1040180044464DE707F07F0707EB8707B9001031E3
:1040280031440431EAE75BB2002B1FDB07F00F02D3
:1040380002EB820200EB8202B2F864211AB3002B71
:1040480025DB07F07F0303EB83039C0004F5A874CA
:10405800344404340FB1802F22D10023236002227C
:104068002146304600F048F8444621E707F00F02A1
:1040780002EB820200EB8202928C002ADFD1FFF76A
:10408800C8FC444614E7FFF7C4FC444610E707F0B1
:104098007F0303EB83039C00103434440434D9E7D2
:1040A8003946304600F05CFA10B101232360D6E7A8
:1040B80000232360D3E70024FAE60446F8E6D0B1EB
:1040C80070B50D4616460446FFF785FC431C5B0099
:1040D8009BB233802B7003236B70022307E0EA54F2
:1040E80001345A1CD2B20021A9540233DBB222781F
:1040F800002AF4D170BD704708B513460222C0F8F3
:1041080094228361C3610A46002100F087FA0020E7
:1041180008BD08B513460A46002100F07FFA0020C2
:1041280008BD08B513460322C0F89422C0F85831D8
:10413800C0F85C310A46002100F078FA002008BD7A
:1041480008B513460A46002100F070FA002008BDA1
:1041580008B50422C0F8942200231A46194600F034
:104168005DFA002008BD08B50522C0F89422002396
:104178001A46194600F05AFA002008BD08B5002270
:104188000F491048FFF71AFA70B90F490D48FFF7A1
:104198002CFA60B90D490B48FFF7B2F950B9094834
:1041A800FFF73DFA48B908BDFCF7B2F9EDE7FCF7AF
:1041B800AFF9EFE7FCF7ACF9F1E7FCF7A9F9F2E79B
:1041C800A8000020900500200C000020940000208A
:1041D80000207047002070470020704710B5064C3B
:1041E800002206492046FFF796F905492046FFF7C1
:1041F800A0F9002010BD00BF900500206C10002021
:104208006C080020094BD3F8BC32D3F814320BB138
:104218000120704710B5054C0A4601462046FFF7B5
:104228007AF92046FFF791F910BD00BF90050020EC
:1042380070B504460D46084E01463046FFF779F939
:104248003046FFF79FF9054B1C6029882046FFF789
:10425800D9FF002070BD00BF900500206C18002019
:1042680012230B8000487047C400002004230B80F1
:1042780000487047D8000020002393421ED200B5A2
:1042880010E00CF1370C01F813C000014FEA430CA1
:104298000CF1010C4FF0000E01F80CE00133DBB219
:1042A800934209D24FEA107CB0F1204FE9D20CF1C9
:1042B800300C01F813C0E8E75DF804FB7047000014
:1042C80038B50B4BD3F8100AD3F8144AD3F8183A78
:1042D800C01800D138BD074D0822A91CFFF7CCFF34
:1042E800042205F112012046FFF7C6FFF2E700BFDE
:1042F8000070FF1FDC00002008B51A230B80FFF7B1
:10430800DFFF014808BD00BFDC00002008B50A46F1
:1043180028B905490548FFF7D2FE034808BD0249F8
:104328000248FFF7CCFEF8E770180020384800086C
:1043380010B50A46034C21460348FFF7C0FE204645
:1043480010BD00BF701800205048000808B50A4684
:1043580028B905490548FFF7B2FE034808BD0249D8
:104368000248FFF7ACFEF8E7701800206448000820
:1043780008B50A4628B905490548FFF7A0FE0348CD
:1043880008BD02490248FFF79AFEF8E770180020B6
:104398007048000830B589B000230393049305934F
:1043A800069307930368B3F1A04F01D009B030BD5D
:1043B80000250195164C236B43F001032363236BFF
:1043C80003F001030193019B4FF4C05303930223AD
:1043D8000493032306930A23079303A90D48FCF7C4
:1043E800D7FA636B43F0800363630295636C43F40D
:1043F80080436364636C03F480430293029B2A4600
:1044080029464320FCF76AFA4320FCF79FFACDE7D8
:10441800003802400000024008B500F29C41D0F884
:10442800E004FFF712F908BD08B501EBC10300EB82
:104438008303D3F86022D0F8E004FFF7D8F908BD69
:1044480008B501EBC10300EB83031A6AD0F8E00456
:10445800FFF730FA08BD08B5D0F8E004FFF772F9A5
:1044680008BD10B50446C17911B1022909D101214D
:10447800D4F8E004FFF747F9D4F8E004FFF711F99E
:1044880010BDFCF745F80121F2E7000010B504461D
:10449800D0F8E004FFF73AF92268D2F8003E43F07A
:1044A8000103C2F8003EE37A23B1034A136943F0DB
:1044B8000603136110BD00BF00ED00E008B5D0F899
:1044C800E004FFF732F908BD08B5D0F8E004FFF7BB
:1044D80061F908BD08B5D0F8E004FFF744F908BD54
:1044E80008B5D0F8E004FFF76CF908BD08B5D0F8B6
:1044F800E004FFF768F908BD02780AB100207047A8
:1045080010B503461548C0F8E034C3F8C8024FF0A8
:10451800A0430360042303710222C2710023837144
:1045280042728372C37203738373C373FCF78AFB8B
:1045380080B90A4C80212046FDF74EF9402200211F
:104548002046FDF724F9802201212046FDF71FF9B6
:10455800002010BDFBF7DCFFEBE700BF701A00205E
:10456800D0F8C83211F0800F08D101F07F0101EBBB
:10457800C10103EB810191F85602704701F07F01F8
:1045880001EBC10103EB8101887D704708B5D0F8C4
:10459800C802FCF759FD08BD00487047541F0020A9
:1045A8007047032805D8DFE800F00504020501205C
:1045B80070470320704708B5D0F8C802FCF7C3FB62
:1045C800FFF7EFFF08BD08B594461A466346D0F8D2
:1045D800C802FCF798FCFFF7E4FF08BD08B5D0F85F
:1045E800C802FCF7D4FCFFF7DCFF08BD08B5D0F81B
:1045F800C802FCF757FDFFF7D4FF08BD08B5D0F88F
:10460800C802FCF792FDFFF7CCFF08BD08B5D0F84B
:10461800C802FCF765FCFFF7C4FF08BD08B5D0F871
:10462800C802FCF71AFDFFF7BCFF08BD08B5D0F8B3
:10463800C802FCF7E4FCFFF7B4FF08BD70B50D4EE7
:104648000D4D761BB61006D0002455F8043B0134F6
:104658009847A642F9D1094E094D761B00F0D4F8C7
:10466800B61006D0002455F8043B01349847A642FA
:10467800F9D170BD8C4800088C480008944800089F
:104688008C480008830730B548D0541E002A3FD014
:10469800CAB2034601E0013C3AD303F8012B9D0757
:1046A800F9D1032C2DD9CDB245EA05250F2C45EAC1
:1046B800054536D9A4F1100222F00F0C03F1200EA3
:1046C800E6444FEA121C03F1100242E9045542E99C
:1046D800025510327245F8D10CF1010214F00C0F9A
:1046E80003EB021204F00F0C13D0ACF1040323F017
:1046F80003030433134442F8045B9342FBD10CF0E8
:1047080003042CB1CAB21C4403F8012B9C42FBD110
:1047180030BD64461346002CF4D1F9E7034614462D
:10472800BFE71A46A446E0E7024B13B1024800F07F
:1047380005B87047000000005147000800230146F3
:104748001A46184600F01AB838B5084B084D5B1BD6
:104758009C1007D0043B1D44013C55F80439984788
:10476800002CF9D1BDE8384000F054B8984800084A
:1047780094480008704700BF704700BF2DE9F04714
:10478800DFF87CA00646DAF8000098460F46914606
:10479800FFF7F0FF1B4B1B68D3F8484124B365684B
:1047A8001F2D26DC5EB96B1C0235DAF80000636049
:1047B80044F82570FFF7E0FF0020BDE8F08704EB20
:1047C80085010123C1F88890D4F88821AB401A43A9
:1047D800022EC4F88821C1F80881E4D1D4F88C21CC
:1047E8001343C4F88C31DEE703F5A674C3F84841D7
:1047F800D5E7DAF80000FFF7BFFF4FF0FF30DCE73E
:104808002005002080480008F8B500BFF8BC08BCA7
:104818009E467047F8B500BFF8BC08BC9E46704776
:104828000000000000000000010203040607080958
:1048380053544D3332205669727475616C20436F3E
:104848006D506F727400000053544D6963726F6548
:104858006C656374726F6E69637300004344432030
:10486800436F6E666967000043444320496E746570
:0C4878007266616365000000F80000201B
:0848840074B9FF7F0100000080
:08488C0031470008AD010008EE
:04489400890100088E
:104898000024F40001000000100000001B34000890
:1048A800B73300089D32000800000000C53000083A
:1048B80021320008E9310008000000000000000073
:1048C80000000000A131000859310008113100082A
:1048D8000531000809024300020100C03209040042
:1048E8000001020201000524001001052401000155
:1048F80004240202052406000107058203080010AB
:1049080009040100020A0000000705010240000036
:1049180007058102400000000A060002000000406E
:1049280001000000E5410008D9410008DD41000808
:1049380039420008E1410008694200087542000850
:10494800394300081543000801430008554300088F
:104958007943000812010002020200408304405714
:104968000002010203010000040309041A03000005
:10497800000000000000000000000000000000002F
:10498800000000000000000000000000E403002018
:104998004C040020B40400200000000000000000C7
:1049A80000000000000000000000000000000000FF
:1049B80000000000000000000000000000000000EF
:1049C80000000000000000000000000000000000DF
:1049D80000000000000000000000000000000000CF
:1049E80000000000000000000000000000000000BF
:1049F80000000000000000000000000000000000AF
:104A0800000000000000000000000000000000009E
:104A1800000000000000000000000000000000008E
:104A2800000000000000000000000000000000007E
:104A380001000000000000000E33CDAB34126DE61B
:104A4800ECDE05000B000000000000000000000084
:104A5800000000000000000000000000000000004E
:104A6800000000000000000000000000000000003E
:104A7800000000000000000000000000000000002E
:104A8800000000000000000000000000000000001E
:044DB8007421002042
:04000005080007A147
:00000001FF
